{
  "_format": "hh-sol-artifact-1",
  "contractName": "Marketplace",
  "sourceName": "src/backend/contracts/Marketplace.sol",
  "abi": [
    {
      "inputs": [
        {
          "internalType": "uint256",
          "name": "_feePercentage",
          "type": "uint256"
        }
      ],
      "stateMutability": "nonpayable",
      "type": "constructor"
    },
    {
      "anonymous": false,
      "inputs": [
        {
          "indexed": false,
          "internalType": "uint256",
          "name": "itemId",
          "type": "uint256"
        },
        {
          "indexed": true,
          "internalType": "address",
          "name": "nft",
          "type": "address"
        },
        {
          "indexed": false,
          "internalType": "uint256",
          "name": "tokenId",
          "type": "uint256"
        },
        {
          "indexed": false,
          "internalType": "uint256",
          "name": "price",
          "type": "uint256"
        },
        {
          "indexed": true,
          "internalType": "address",
          "name": "seller",
          "type": "address"
        }
      ],
      "name": "Offered",
      "type": "event"
    },
    {
      "inputs": [],
      "name": "feeAccount",
      "outputs": [
        {
          "internalType": "address payable",
          "name": "",
          "type": "address"
        }
      ],
      "stateMutability": "view",
      "type": "function"
    },
    {
      "inputs": [],
      "name": "feePercent",
      "outputs": [
        {
          "internalType": "uint256",
          "name": "",
          "type": "uint256"
        }
      ],
      "stateMutability": "view",
      "type": "function"
    },
    {
      "inputs": [],
      "name": "itemCount",
      "outputs": [
        {
          "internalType": "uint256",
          "name": "",
          "type": "uint256"
        }
      ],
      "stateMutability": "view",
      "type": "function"
    },
    {
      "inputs": [
        {
          "internalType": "contract IERC721",
          "name": "_nft",
          "type": "address"
        },
        {
          "internalType": "uint256",
          "name": "_tokenId",
          "type": "uint256"
        },
        {
          "internalType": "uint256",
          "name": "_price",
          "type": "uint256"
        }
      ],
      "name": "makeItem",
      "outputs": [],
      "stateMutability": "nonpayable",
      "type": "function"
    }
  ],
  "bytecode": "0x60c060405234801561001057600080fd5b506040516107b83803806107b883398181016040528101906100329190610094565b60016000819055503373ffffffffffffffffffffffffffffffffffffffff1660808173ffffffffffffffffffffffffffffffffffffffff1660601b815250508060a08181525050506100de565b60008151905061008e816100c7565b92915050565b6000602082840312156100a657600080fd5b60006100b48482850161007f565b91505092915050565b6000819050919050565b6100d0816100bd565b81146100db57600080fd5b50565b60805160601c60a0516106b4610104600039600060f30152600060c901526106b46000f3fe608060405234801561001057600080fd5b506004361061004c5760003560e01c806365e17c9d146100515780636bfb0d011461006f5780637fd6f15c1461008d578063fa00afc7146100ab575b600080fd5b6100596100c7565b6040516100669190610468565b60405180910390f35b6100776100eb565b60405161008491906104fa565b60405180910390f35b6100956100f1565b6040516100a291906104fa565b60405180910390f35b6100c560048036038101906100c091906103a6565b610115565b005b7f000000000000000000000000000000000000000000000000000000000000000081565b60015481565b7f000000000000000000000000000000000000000000000000000000000000000081565b6002600054141561015b576040517f08c379a0000000000000000000000000000000000000000000000000000000008152600401610152906104da565b60405180910390fd5b6002600081905550600081116101a6576040517f08c379a000000000000000000000000000000000000000000000000000000000815260040161019d906104ba565b60405180910390fd5b600160008154809291906101b990610586565b91905055508273ffffffffffffffffffffffffffffffffffffffff166323b872dd3330856040518463ffffffff1660e01b81526004016101fb93929190610483565b600060405180830381600087803b15801561021557600080fd5b505af1158015610229573d6000803e3d6000fd5b505050506040518060c0016040528060015481526020018473ffffffffffffffffffffffffffffffffffffffff1681526020018381526020018281526020013373ffffffffffffffffffffffffffffffffffffffff168152602001600015158152506002600060015481526020019081526020016000206000820151816000015560208201518160010160006101000a81548173ffffffffffffffffffffffffffffffffffffffff021916908373ffffffffffffffffffffffffffffffffffffffff160217905550604082015181600201556060820151816003015560808201518160040160006101000a81548173ffffffffffffffffffffffffffffffffffffffff021916908373ffffffffffffffffffffffffffffffffffffffff16021790555060a08201518160040160146101000a81548160ff0219169083151502179055509050506001600081905550505050565b60008135905061038b81610650565b92915050565b6000813590506103a081610667565b92915050565b6000806000606084860312156103bb57600080fd5b60006103c98682870161037c565b93505060206103da86828701610391565b92505060406103eb86828701610391565b9150509250925092565b6103fe81610538565b82525050565b61040d81610526565b82525050565b6000610420601f83610515565b915061042b826105fe565b602082019050919050565b6000610443601f83610515565b915061044e82610627565b602082019050919050565b6104628161057c565b82525050565b600060208201905061047d60008301846103f5565b92915050565b60006060820190506104986000830186610404565b6104a56020830185610404565b6104b26040830184610459565b949350505050565b600060208201905081810360008301526104d381610413565b9050919050565b600060208201905081810360008301526104f381610436565b9050919050565b600060208201905061050f6000830184610459565b92915050565b600082825260208201905092915050565b60006105318261055c565b9050919050565b60006105438261055c565b9050919050565b600061055582610526565b9050919050565b600073ffffffffffffffffffffffffffffffffffffffff82169050919050565b6000819050919050565b60006105918261057c565b91507fffffffffffffffffffffffffffffffffffffffffffffffffffffffffffffffff8214156105c4576105c36105cf565b5b600182019050919050565b7f4e487b7100000000000000000000000000000000000000000000000000000000600052601160045260246000fd5b7f5072696365206d7573742062652067726561746572207468616e207a65726f00600082015250565b7f5265656e7472616e637947756172643a207265656e7472616e742063616c6c00600082015250565b6106598161054a565b811461066457600080fd5b50565b6106708161057c565b811461067b57600080fd5b5056fea264697066735822122037eeb7b1261dbae9c8e40b4c5288485bb41a09632d3bf6e5e2b4ac1a83133a8e64736f6c63430008040033",
  "linkReferences": {},
  "deployedLinkReferences": {}
}